:1000000012C02CC02BC02AC029C028C027C026C0BF
:1000100025C024C023C022C021C020C01FC01EC0D4
:100020001DC01CC01BC011241FBECFE5D4E0DEBF25
:10003000CDBF10E0A0E6B0E0EAE0F5E002C0059038
:100040000D92AC3DB107D9F710E0ACEDB0E001C0C6
:100050001D92AF3FB107E1F72CD055C2D1CFDF934E
:10006000CF930F92CDB7DEB78FED90E0BE016F5FFB
:100070007F4FDCD1EFEDF0E090E08191980F80E0D0
:10008000EF3EF807D1F78081981779F48091DF006F
:10009000803359F4C09A84EF91E028EC30E0F90104
:1000A0003197F1F70197D9F7C0980F90CF91DF9171
:1000B000089580E197E228EC30E0F9013197F1F7FB
:1000C0000197D9F796D0B89AC09885B78F78806293
:1000D00085BF789485B7806885BF889585B78F7709
:1000E00085BFBDDF85B7806885BF8895F7CFC2988B
:1000F000EAD180E0E8D1C29A08951F93162FC298E2
:10010000E2D1812FE0D1C29A1F9108951F93182F39
:1001100087E0EDDF87FF03C0112319F005C011232D
:1001200019F080E563E5E9DF1F91089580E0DFDFE6
:10013000682F6D7F80E2E1DF089581EE60E0DDDF12
:10014000C19880E0D4DF682F6E7F626080E2D5DFE7
:10015000C19A80EA9FE00197F1F7089582EE60E08E
:10016000CCDF87E0C4DF682F87E2C7DFC19880E07B
:10017000BEDF682F616080E2C0DFC19A0895682FFA
:1001800085E2BBDF0895FF920F931F938B01F42E3E
:10019000C29899D1C8016F2D70E09AD1C29A1F916F
:1001A0000F91FF9008950F931F93CF93DF93182F14
:1001B000EB01042FC2DFC19A87E199DF85FD04C0FE
:1001C000812FBE01402FDFDFC1988091DC008823A2
:1001D00021F01092DC0080E007C08091DE008823CF
:1001E000A1F31092DE0081E0DF91CF911F910F917A
:1001F0000895CF92DF92EF92FF920F931F93DF93B8
:10020000CF93CDB7DEB72C970FB6F894DEBF0FBEF5
:10021000CDBFB99A80E060E043D180ED97E028EC53
:1002200030E0F9013197F1F70197D9F780E06EDFFF
:10023000A3EAEA2EA0E0FA2EF701808180626181B4
:100240005CDF82E090E0E80EF91E9BECE91690E09E
:10025000F90691F7F4E3CF2EC982E3E4DE2EDA82C9
:1002600070E1F72EFB82FC82EE24E394ED828AE2B9
:100270008E010F5F1F4FB80145E085DF89E3898359
:1002800088E38A8387E38B8386E38C8382EC8D8388
:100290008BE2B80145E077DFC982DA82FB82FC821B
:1002A000ED8280E3B80145E06EDF8DE120DF882339
:1002B00019F480E563E721DF8091CF0080626091CF
:1002C000D0001BDF8091CD0080626091CE0015DFF1
:1002D00081E01CDF60E6E62E60E0F62E00E06E01B5
:1002E0000894C11CD11C09C054E8E52E50E0F52E3D
:1002F0006E010894C11CD11C3BC0F7018191919102
:10030000A191B1917F018983292F3A2F4B2F552736
:100310002A839D01442755272B838B2F9927AA27B2
:10032000BB278C83802F8062B60144E02CDF0F5FF7
:10033000093019F7D9CFDB01CA01022E04C0B695E6
:10034000A795979587950A94D2F7819328503040C6
:100350008FEF283F380779F7802F8062B60144E09D
:1003600012DF0F5FE4E0F0E0EE0EFF1E0E3049F00A
:10037000F7014081518162817381F60128E130E00B
:10038000DACF20E030E07E010894E11CF11CF70197
:10039000E20FF31FD901A856BF4F8C9180832F5FC6
:1003A0003F4F2B30310599F78EE2B7014BE0EBDE82
:1003B00086E98A8382E88B838BE18C838FED898346
:1003C00084E2B70144E0DFDE8981897F898384E2AA
:1003D000B70144E0D8DE84EF91E028EC30E0F90189
:1003E0003197F1F70197D9F780E090DEB7DE2C96D0
:1003F0000FB6F894DEBF0FBECDBFCF91DF911F9136
:100400000F91FF90EF90DF90CF900895FF920F93A0
:100410001F938B01F42EC29856D0C8016F2D70E047
:1004200065D0C29A1F910F91FF900895EF92FF92AD
:100430001F93CF93DF937C01EB0187E058DE682F99
:1004400090E0B6E096958795BA95E1F78170809334
:10045000DD008091DD00882311F087E24EDE80917F
:10046000DD008823B1F01092DD0080E640DE182F19
:10047000813230F481E6B701412FC8DF188304C010
:1004800082EE60E03ADE188287E131DE80FFEDCF58
:1004900001C01882DF91CF911F91FF90EF900895D6
:1004A00097B3986297BBBA9AC29A880F880F8065F3
:1004B0008DB99DB1862F8370892B8DB962FF02C0E3
:1004C00081E08EB908958FB9779BFECF8FB10895E3
:1004D000FC0108C080818FB9779BFECF31968FB128
:1004E0006150704061157105A9F70895FC0107C0BE
:1004F0001FB8779BFECF8FB181936150704061151B
:0A0500007105B1F70895F894FFCFDC
:10050A00404B01E2C04B0000D0FC8C0299003941FB
:10051A00D996821B24027FA600000000000000007A
:10052A0000000000000000000000000000000000C1
:10053A00007312000080B446412008048120CFF7DE
:10054A00FEFFFF000F013F023F03030415051706D4
:10055A00070707080009000CC30DC40EC50FC61112
:10056A00201220132014201520162017001C3F1DCE
:0C057A0007344310100139383736C20036
:00000001FF
