:1000000012C02CC02BC02AC029C028C027C026C0BF
:1000100025C02BC023C022C021C020C01FC01EC0CD
:100020001DC01CC01BC011241FBECFE5D4E0DEBF25
:10003000CDBF10E0A0E6B0E0E0E7F5E002C005903B
:100040000D92AC3EB107D9F711E0ACEEB0E001C0C3
:100050001D92A131B107E1F766D088C2D1CF85E00A
:1000600083BF89B7816089BF08951F920F920FB631
:100070000F9211248F938091EC008F5F8093EC009E
:100080008F3128F01092EC0081E08093F0008F9186
:100090000F900FBE0F901F90189580E090E020ED1C
:1000A00037E0F9013197F1F7019643E0883E940774
:1000B000C1F70895DF93CF93CDB7DEB7A0970FB602
:1000C000F894DEBF0FBECDBF8091F000882311F100
:1000D0001092F00020E030E0BE016F5F7F4FFB0127
:1000E000E20FF31FD901A05ABF4F8C9180832F5F7D
:1000F0003F4F2131310599F7C09A80EB41E186D01D
:1001000084EF91E028EC30E0F9013197F1F70197A5
:10011000D9F7C098A0960FB6F894DEBF0FBECDBF3A
:10012000CF91DF91089580E090E020ED37E0F90174
:100130003197F1F7019643E0883E9407C1F785E0D7
:1001400083BF89B7816089BF87D0B89AC0987894F7
:10015000B1DFFECFC298EAD180E0E8D1C29A08951B
:100160001F93162FC298E2D1812FE0D1C29A1F911E
:1001700008951F93182F87E0EDDF87FF03C0112339
:1001800019F005C0112319F080E563E5E9DF1F913F
:10019000089580E0DFDF682F6D7F80E2E1DF089562
:1001A00081EE60E0DDDFC19880E0D4DF682F6E7FF4
:1001B000626080E2D5DFC19A80EA9FE00197F1F7A3
:1001C000089582EE60E0CCDF87E0C4DF682F87E22D
:1001D000C7DFC19880E0BEDF682F616080E2C0DFCA
:1001E000C19A0895682F85E2BBDF0895FF920F93AF
:1001F0001F938B01F42EC29899D1C8016F2D70E026
:100200009AD1C29A1F910F91FF9008950F931F9357
:10021000CF93DF93182FEB01042FC2DFC19A87E140
:1002200099DF85FD04C0812FBE01402FDFDFC1981B
:100230008091ED00882321F01092ED0080E007C04E
:100240008091EF008823A1F31092EF0081E0DF910D
:10025000CF911F910F910895CF92DF92EF92FF926D
:100260000F931F93DF93CF93CDB7DEB72C970FB6C5
:10027000F894DEBF0FBECDBFB99A80E060E043D1F5
:1002800080ED97E028EC30E0F9013197F1F7019724
:10029000D9F780E06EDFA4EBEA2EA0E0FA2EF7019A
:1002A0008081806261815CDF82E090E0E80EF91E6F
:1002B0009CEDE91690E0F90691F7F4E3CF2EC982A0
:1002C000E3E4DE2EDA8270E1F72EFB82FC82EE247C
:1002D000E394ED828AE28E010F5F1F4FB80145E083
:1002E00085DF89E3898388E38A8387E38B8386E3D9
:1002F0008C8382EC8D838BE2B80145E077DFC98285
:10030000DA82FB82FC82ED8280E3B80145E06EDF99
:100310008DE120DF882319F480E563E721DF8091F8
:10032000E00080626091E1001BDF8091DE0080626E
:100330006091DF0015DF81E01CDF61E7E62E60E001
:10034000F62E00E06E010894C11CD11C09C055E9CD
:10035000E52E50E0F52E6E010894C11CD11C3BC067
:10036000F70181919191A191B1917F018983292F09
:100370003A2F4B2F55272A839D01442755272B833E
:100380008B2F9927AA27BB278C83802F8062B601E9
:1003900044E02CDF0F5F093019F7D9CFDB01CA0128
:1003A000022E04C0B695A795979587950A94D2F723
:1003B0008193285030408FEF283F380779F7802FFE
:1003C0008062B60144E012DF0F5FE4E0F0E0EE0E81
:1003D000FF1E0E3049F0F701408151816281738127
:1003E000F60128E130E0DACF20E030E07E01089429
:1003F000E11CF11CF701E20FF31FD901A755BF4F14
:100400008C9180832F5F3F4F2B30310599F78EE21F
:10041000B7014BE0EBDE86E98A8382E88B838BE1D0
:100420008C838FED898384E2B70144E0DFDE89812C
:10043000897F898384E2B70144E0D8DE84EF91E0CC
:1004400028EC30E0F9013197F1F70197D9F780E016
:1004500090DEB7DE2C960FB6F894DEBF0FBECDBF90
:10046000CF91DF911F910F91FF90EF90DF90CF9090
:100470000895FF920F931F938B01F42EC29856D0CC
:10048000C8016F2D70E065D0C29A1F910F91FF9047
:100490000895EF92FF921F93CF93DF937C01EB01BE
:1004A00087E058DE682F90E0B6E096958795BA957C
:1004B000E1F781708093EE008091EE00882311F0C7
:1004C00087E24EDE8091EE008823B1F01092EE00BC
:1004D00080E640DE182F813230F481E6B701412FEB
:1004E000C8DF188304C082EE60E03ADE188287E13C
:1004F00031DE80FFEDCF01C01882DF91CF911F91D7
:10050000FF90EF90089597B3986297BBBA9AC29AFA
:10051000880F880F80658DB99DB1862F8370892BD8
:100520008DB962FF02C081E08EB908958FB9779BC3
:10053000FECF8FB10895FC0108C080818FB9779BF1
:10054000FECF31968FB16150704061157105A9F7EA
:100550000895FC0107C01FB8779BFECF8FB1819330
:100560006150704061157105B1F70895F894FFCF9F
:10057000303132333435363738393A3B3C3D3E3F03
:1005800078404B01E2C04B0000D0FC8C029900394E
:1005900041D996821B24027FA600000000000000C3
:1005A000000000000000000000000000000000004B
:1005B00000007312000080B446412008048120CF5F
:1005C000F7FEFFFF000F013F023F0303041505176D
:1005D00006070707080009000CC30DC40EC50FC6A7
:1005E00011201220132014201520162017001C3F64
:0C05F0001D07344310100139383736C2A3
:00000001FF
