:1000000012C02CC0A7C02AC029C028C027C026C043
:1000100025C02BC023C022C021C020C01FC01EC0CD
:100020001DC01CC01BC011241FBECFE5D4E0DEBF25
:10003000CDBF10E0A0E6B0E0E2E7F5E002C0059039
:100040000D92AC3EB107D9F711E0ACEEB0E001C0C3
:100050001D92A031B107E1F757D089C2D1CF85E019
:1000600083BF89B7816089BF08951F920F920FB631
:100070000F9211248F938091EC008F5F8093EC009E
:100080008F3128F01092EC0081E08093EF008F9187
:100090000F900FBE0F901F90189580E090E020ED1C
:1000A00037E0F9013197F1F7019643E0883E940774
:1000B000C1F70895DF93CF930F92CDB7DEB780EFEE
:1000C00090E0BE016F5F7F4FF9D1E0EFF0E090E08C
:1000D0008191980F81E0E030F807D1F7808198177F
:1000E00079F48091F000803359F4C09A84EF91E064
:1000F00028EC30E0F9013197F1F70197D9F7C09872
:100100000F90CF91DF91089580E090E020ED37E0EF
:10011000F9013197F1F7019643E0883E9407C1F762
:1001200085E083BF89B7816089BFA2D0B89AC098A3
:100130007894C0DFFECFC298FAD180E0F8D1C29A9D
:1001400008951F93162FC298F2D1812FF0D1C29A31
:100150001F9108951F920F920FB60F9211242F93A3
:100160003F934F935F936F937F938F939F93AF933F
:10017000BF93EF93FF9387E0DEDF682F982F66FF32
:1001800003C081E08093EE0095FF03C081E080937F
:10019000ED0087E2D6DFFF91EF91BF91AF919F9184
:1001A0008F917F916F915F914F913F912F910F9020
:1001B0000FBE0F901F901895682F85E2C2DF08953B
:1001C0001F93182F87E0B7DF87FF03C0112319F0B3
:1001D00005C0112319F080E563E5B3DF1F91089591
:1001E00081EE60E0AEDFC19880E0A5DF682F6E7F12
:1001F00080E2A7DFC19A089582EE60E0A2DF87E087
:100200009ADF682F87E29DDFC19880E094DF682F36
:10021000616080E296DFC19A0895FF920F931F9369
:100220008B01F42EC29883D1C8016F2D70E084D168
:10023000C29A1F910F91FF9008950F931F93CF9330
:10024000DF93182FEB01042FCBDF87E174DF85FDEF
:1002500004C0812FBE01402FE0DF8091ED00882394
:10026000E1F31092ED00DF91CF911F910F9108956E
:10027000CF92DF92EF92FF920F931F93DF93CF9372
:10028000CDB7DEB72C970FB6F894DEBF0FBECDBF4B
:10029000B99A80E060E038D185B7886085BF85B7BE
:1002A0008B7F85BF8BB780688BBF80ED97E028EC94
:1002B00030E0F9013197F1F70197D9F780E080DF5D
:1002C000A4EBEA2EA0E0FA2EF70180818062618122
:1002D00038DF82E090E0E80EF91E9CEDE91690E030
:1002E000F90691F7F4E3CF2EC982E3E4DE2EDA8239
:1002F00070E1F72EFB82FC82EE24E394ED828AE229
:100300008E010F5F1F4FB80145E087DF89E38983C6
:1003100088E38A8387E38B8386E38C8382EC8D83F7
:100320008BE2B80145E079DFC982DA82FB82FC8288
:10033000ED8280E3B80145E070DF8DE1FCDE8823CB
:1003400019F480E563E7FDDE8091E0008062609152
:10035000E100F7DE8091DE0080626091DF00F1DE77
:1003600081E02EDF61E7E62E60E0F62E00E06E0110
:100370000894C11CD11C09C055E9E52E50E0F52EAA
:100380006E010894C11CD11C3BC0F7018191919171
:10039000A191B1917F018983292F3A2F4B2F5527A6
:1003A0002A839D01442755272B838B2F9927AA2722
:1003B000BB278C83802F8062B60144E02EDF0F5F65
:1003C000093019F7D9CFDB01CA01022E04C0B69556
:1003D000A795979587950A94D2F781932850304036
:1003E0008FEF283F380779F7802F8062B60144E00D
:1003F00014DF0F5FE4E0F0E0EE0EFF1E0E3049F078
:10040000F7014081518162817381F60128E130E07A
:10041000DACF20E030E07E010894E11CF11CF70106
:10042000E20FF31FD901A755BF4F8C9180832F5F37
:100430003F4F2B30310599F78EE2B7014BE0EDDEEF
:1004400086E98A8382E88B838BE18C838FED8983B5
:1004500084E2B70144E0E1DE8981897F898384E217
:10046000B70144E0DADE84EF91E028EC30E0F901F6
:100470003197F1F70197D9F780E0A2DEBDDE2C9627
:100480000FB6F894DEBF0FBECDBFCF91DF911F91A5
:100490000F91FF90EF90DF90CF900895FF920F9310
:1004A0001F938B01F42EC29842D0C8016F2D70E0CB
:1004B00051D0C29A1F910F91FF900895EF92FF9231
:1004C0001F93CF93DF937C01EB018091EE00882393
:1004D000E1F31092EE0080E62EDE182F813230F428
:1004E00081E6B701412FDADF188304C082EE60E0B5
:1004F00028DE188287E11FDE80FFEDCFDF91CF91EC
:100500001F91FF90EF90089597B3986297BBBA9AA6
:10051000C29A880F880F80658DB99DB1862F837030
:10052000892B8DB962FF02C081E08EB908958FB921
:10053000779BFECF8FB10895FC0108C080818FB9F1
:10054000779BFECF31968FB1615070406115710578
:10055000A9F70895FC0107C01FB8779BFECF8FB1A4
:1005600081936150704061157105B1F70895F89459
:02057000FFCFBB
:10057200303132333435363738393A3B3C3D3E3F01
:1005820078404B01E2C04B0000D0FC8C029900394C
:1005920041D996821B24027FA600000000000000C1
:1005A2000000000000000000000000000000000049
:1005B20000007312000080B446412008048120CF5D
:1005C200F7FEFFFF000F013F023F030304FF051781
:1005D20006070707080009000CC30DC40EC50FC6A5
:1005E20011201220132014201520162017001C3F62
:0C05F2001D07344310100139383736C2A1
:00000001FF
