:1000000012C02CC0CCC02AC046C028C027C026C001
:1000100025C024C023C022C021C020C01FC01EC0D4
:100020001DC01CC01BC011241FBECFE5D4E0DEBF25
:10003000CDBF10E0A0E6B0E0E8EFF5E002C005902B
:100040000D92AE3EB107D9F710E0AEEEB0E001C0C0
:100050001D92A23FB107E1F734D0CCC2D1CF80E2EC
:100060009EE428EC30E0F9013197F1F70197D9F7D8
:1000700089B78F7389BF82B5886082BD14BC85E063
:1000800085BD82B590E087709070892BD1F789B7D4
:10009000806489BF08951F920F920FB60F921124AA
:1000A0008F938091EE008F5F8093EE0080FF03C0FE
:1000B00081E0809360008F910F900FBE0F901F9092
:1000C0001895EF92FF920F931F93CF93DF93C7DFA3
:1000D00010D1B89AC09885B78F78806385BF78941F
:1000E00085B7806885BF889585B78F7785BF00E025
:1000F00080E4E82E8CE9F82EC8ECD0E08091600016
:10010000882309F435C0109260000F5F00936100EE
:1001100010927100E1E6F0E0819190917100890FF9
:100120008093710080E0E137F807B1F7C09A7097CB
:1001300080EABF0141E1B7D0182F78D0112341F4F4
:1001400084EF91E0FE013197F1F70197D9F70FC0E5
:10015000C7010197F1F7C09888EE93E0FE0131974F
:10016000F1F70197D9F7C09AC7010197F1F7C09845
:1001700085B7806885BF889585B78F7785BFBECFE7
:10018000C29818D280E016D2C29A08951F93162FF3
:10019000C29810D2812F0ED2C29A1F9108951F9239
:1001A0000F920FB60F9211242F933F934F935F93AB
:1001B0006F937F938F939F93AF93BF93EF93FF932F
:1001C00087E0DEDF682F982F66FF03C081E0809311
:1001D000F00095FF03C081E08093EF0094FF03C01F
:1001E00081E08093F10087E2D1DFFF91EF91BF9131
:1001F000AF919F918F917F916F915F914F913F91BF
:100200002F910F900FBE0F901F9018951F93182FCE
:1002100087E0B6DF87FF03C0112319F005C0112363
:1002200019F080E563E5B2DF1F91089580E0A8DF53
:10023000682F6D7F80E2AADF089581EE60E0A6DF7F
:10024000C19880E09DDF682F6E7F626080E29EDF54
:10025000C19A80EA9FE00197F1F7089582EE60E08D
:1002600095DF87E08DDF682F87E290DFC19880E01F
:1002700087DF682F616080E289DFC19A0895682F67
:1002800085E284DF0895FF920F931F938B01F42E74
:10029000C29890D1C8016F2D70E091D1C29A1F9180
:1002A0000F91FF9008950F931F93CF93DF93182F13
:1002B000EB01042FC2DFC19A87E162DF85FD04C034
:1002C000812FBE01402FDFDFC1988091EF0088238E
:1002D00021F01092EF0080E007C08091F1008823A8
:1002E000A1F31092F10081E0DF91CF911F910F9166
:1002F0000895CF92DF92EF92FF920F931F93DF93B7
:10030000CF93CDB7DEB72C970FB6F894DEBF0FBEF4
:10031000CDBFB99A80E060E03AD185B7877F85BFCD
:1003200085B78B7F85BF8BB780688BBF80ED97E0EB
:1003300028EC30E0F9013197F1F70197D9F780E027
:1003400065DFA5EBEA2EA0E0FA2EF701808180623E
:1003500061811CDF82E090E0E80EF91E9DEDE91658
:1003600090E0F90691F7F4E3CF2EC982E3E4DE2EA4
:10037000DA8270E1F72EFB82FC82EE24E394ED82B8
:100380008AE28E010F5F1F4FB80145E07CDF89E3F1
:10039000898388E38A8387E38B8386E38C8382EC7B
:1003A0008D838BE2B80145E06EDFC982DA82FB8281
:1003B000FC82ED8280E3B80145E065DF8DE1E0DE9F
:1003C000882319F480E563E7E1DE8091E100806233
:1003D0006091E200DBDE8091DF0080626091E000EE
:1003E000D5DE81E013DF62E7E62E60E0F62E00E066
:1003F0006E010894C11CD11C09C056E9E52E50E0DD
:10040000F52E6E010894C11CD11C3BC0F7018191EF
:100410009191A191B1917F018983292F3A2F4B2F7F
:1004200055272A839D01442755272B838B2F9927F6
:10043000AA27BB278C83802F8062B60144E023DF8C
:100440000F5F093019F7D9CFDB01CA01022E04C0B2
:10045000B695A795979587950A94D2F781932850DA
:1004600030408FEF283F380779F7802F8062B60140
:1004700044E009DF0F5FE4E0F0E0EE0EFF1E0E3017
:1004800049F0F7014081518162817381F60128E1D1
:1004900030E0DACF20E030E07E010894E11CF11C6E
:1004A000F701E20FF31FD901A655BF4F8C9180834E
:1004B0002F5F3F4F2B30310599F78EE2B7014BE0AC
:1004C000E2DE86E98A8382E88B838BE18C838FED81
:1004D000898384E2B70144E0D6DE8981897F8983FC
:1004E00084E2B70144E0CFDE84EF91E028EC30E015
:1004F000F9013197F1F70197D9F780E087DEAEDE99
:100500002C960FB6F894DEBF0FBECDBFCF91DF9112
:100510001F910F91FF90EF90DF90CF900895FF9281
:100520000F931F938B01F42EC29844D0C8016F2DF6
:1005300070E053D0C29A1F910F91FF900895EF92EF
:10054000FF921F93CF93DF937C01EB018091F0002A
:100550008823B1F01092F00080E612DE182F81326D
:1005600030F481E6B701412FDADF188304C082EE50
:1005700060E00CDE188287E103DE80FFEDCF01C072
:100580001882DF91CF911F91FF90EF90089597B35C
:10059000986297BBBA9AC29A880F880F80658DB906
:1005A0009DB1862F8370892B8DB962FF02C081E0D7
:1005B0008EB908958FB9779BFECF8FB10895FC0156
:1005C00008C080818FB9779BFECF31968FB1615083
:1005D000704061157105A9F70895FC0107C01FB8A7
:1005E000779BFECF8FB1819361507040611571058B
:0805F000B1F70895F894FFCF64
:1005F80001303132333435363738393A3B3C3D3EB9
:100608003F78404B01E2C04B0000D0FC8C029900BF
:100618003941D996821B24027FA600000000000001
:1006280000000000000000000000000000000000C2
:100638000000007312000080B446412008048120A5
:10064800CFF7FEFFFF000F013F023F03030415052C
:100658001706070707080009000CC30DC40EC50FCD
:10066800C611201220132014201520162017001C54
:0E0678003F1D07344310100139383736C200D9
:00000001FF
