:1000000012C02CC0B7C02AC046C028C027C026C016
:1000100025C024C023C022C021C020C01FC01EC0D4
:100020001DC01CC01BC011241FBECFE5D4E0DEBF25
:10003000CDBF10E0A0E6B0E0ECEAF5E002C005902C
:100040000D92AC3EB107D9F711E0ACEEB0E001C0C3
:100050001D92A031B107E1F741D0A6C2D1CF80E215
:100060009EE428EC30E0F9013197F1F70197D9F7D8
:1000700089B78F7389BF82B5886082BD14BC85E063
:1000800085BD82B590E087709070892BD1F789B7D4
:10009000806489BF08951F920F920FB60F921124AA
:1000A0008F938091EC008F5F8093EC0080FF03C002
:1000B00081E08093EF008F910F900FBE0F901F9003
:1000C000189580E090E020ED37E0F9013197F1F7E5
:1000D000019643E0883E9407C1F70895CF93DF93DC
:1000E00080E090E020ED37E0F9013197F1F70196DB
:1000F00043E0883E9407C1F7B2DFD7D0B89AC098E2
:1001000085B78F78806385BF789485B7806885BF11
:10011000889585B78F7785BFC8ECD0E08091EF00D8
:10012000882389F01092EF00C09A80EB60E670E0BF
:1001300041E19CD065D084EF91E0FE013197F1F769
:100140000197D9F7C09885B7806885BF889585B72E
:100150008F7785BFE3CFC29807D280E005D2C29ADD
:1001600008951F93162FC298FFD1812FFDD1C29AF7
:100170001F9108951F920F920FB60F9211242F9383
:100180003F934F935F936F937F938F939F93AF931F
:10019000BF93EF93FF9387E0DEDF682F982F66FF12
:1001A00003C081E08093EE0095FF03C081E080935F
:1001B000ED0087E2D6DFFF91EF91BF91AF919F9164
:1001C0008F917F916F915F914F913F912F910F9000
:1001D0000FBE0F901F901895682F85E2C2DF08951B
:1001E0001F93182F87E0B7DF87FF03C0112319F093
:1001F00005C0112319F080E563E5B3DF1F91089571
:10020000C19880E0A8DF682F6D7F80E2AADF0895A3
:1002100081EE60E0A6DFC19880E09DDF682F6E7FF1
:10022000626080E29EDFC19A089582EE60E099DF0D
:1002300087E091DF682F87E294DFC19880E08BDF51
:10024000682F616080E28DDFC19A0895FF920F935D
:100250001F938B01F42EC29887D1C8016F2D70E0D7
:1002600088D1C29A1F910F91FF9008950F931F9309
:10027000CF93DF93182FEB01042FCADF80ED97E0B7
:100280000197F1F787E167DF85FD04C0812FBE018B
:10029000402FDCDF8091ED008823E1F31092ED0028
:1002A000DF91CF911F910F910895CF92DF92EF923E
:1002B000FF920F931F93DF93CF93CDB7DEB72C97A9
:1002C0000FB6F894DEBF0FBECDBFB99A80E060E0F4
:1002D00038D185B7877F85BF85B78B7F85BF8BB7C3
:1002E00080688BBF80ED97E028EC30E0F901319712
:1002F000F1F70197D9F780E073DFA4EBEA2EA0E0D5
:10030000FA2EF7018081806261812BDF82E090E02C
:10031000E80EF91E9CEDE91690E0F90691F7F4E37A
:10032000CF2EC982E3E4DE2EDA8270E1F72EFB8263
:10033000FC82EE24E394ED828AE28E010F5F1F4F70
:10034000B80145E083DF89E3898388E38A8387E313
:100350008B8386E38C8382EC8D838BE2B80145E04E
:1003600075DFC982DA82FB82FC82ED8280E3B8010C
:1003700045E06CDF8DE1EFDE882319F480E563E76B
:10038000F0DE8091E00080626091E100EADE809121
:10039000DE0080626091DF00E4DE81E021DF61E762
:1003A000E62E60E0F62E00E06E010894C11CD11C20
:1003B00009C055E9E52E50E0F52E6E010894C11CE8
:1003C000D11C3BC0F70181919191A191B1917F0125
:1003D0008983292F3A2F4B2F55272A839D014427A4
:1003E00055272B838B2F9927AA27BB278C83802FF8
:1003F0008062B60144E02ADF0F5F093019F7D9CFD8
:10040000DB01CA01022E04C0B695A7959795879582
:100410000A94D2F78193285030408FEF283F380755
:1004200079F7802F8062B60144E010DF0F5FE4E0CF
:10043000F0E0EE0EFF1E0E3049F0F70140815181D1
:1004400062817381F60128E130E0DACF20E030E00C
:100450007E010894E11CF11CF701E20FF31FD901A2
:10046000A755BF4F8C9180832F5F3F4F2B303105B5
:1004700099F78EE2B7014BE0E9DE86E98A8382E8EC
:100480008B838BE18C838FED898384E2B70144E019
:10049000DDDE8981897F898384E2B70144E0D6DE8D
:1004A00084EF91E028EC30E0F9013197F1F7019702
:1004B000D9F780E095DEB9DE2C960FB6F894DEBF52
:1004C0000FBECDBFCF91DF911F910F91FF90EF90A5
:1004D000DF90CF900895FF920F931F938B01F42E1E
:1004E000C29842D0C8016F2D70E051D0C29A1F91BE
:1004F0000F91FF900895EF92FF921F93CF93DF9398
:100500007C01EB018091EE008823A9F01092EE00AF
:1005100080E621DE182F813230F481E6B701412FC9
:10052000DADF188304C082EE60E01BDE188287E108
:1005300012DE80FFEDCFDF91CF911F91FF90EF9002
:10054000089597B3986297BBBA9AC29A880F880F9A
:1005500080658DB99DB1862F8370892B8DB962FF1F
:1005600002C081E08EB908958FB9779BFECF8FB11D
:100570000895FC0108C080818FB9779BFECF31962A
:100580008FB16150704061157105A9F70895FC01A4
:1005900007C01FB8779BFECF8FB181936150704029
:0C05A00061157105B1F70895F894FFCFC4
:1005AC00303132333435363738393A3B3C3D3E3FC7
:1005BC0078404B01E2C04B0000D0FC8C0299003912
:1005CC0041D996821B24027FA60000000000000087
:1005DC00000000000000000000000000000000000F
:1005EC0000007312000080B446412008048120CF23
:1005FC00F7FEFFFF000F013F023F030304FF051747
:10060C0006070707080009000CC30DC40EC50FC66A
:10061C0011201220132014201520162017001C3F27
:0C062C001D07344310100139383736C266
:00000001FF
